{
  "transactions": [
    {
      "hash": "0x2bc7918386cf31fac4cce014d24a6d21c5963afe1b3cf7dd7ed08142de9dfc1e",
      "transactionType": "CREATE",
      "contractName": "RegenPledgeRegistry",
      "contractAddress": "0x0f065350e728465e1f840b7226f58431868626a9",
      "function": null,
      "arguments": [
        "0x469449f251692E0779667583026b5A1E99512157",
        "\"app_staging_64d94c0a4c6d65f0a63e059939e58887\"",
        "\"register-for-restakeregen\""
      ],
      "transaction": {
        "from": "0x70a0c937a0cf7821c235a2defcc68da01fef92fa",
        "gas": "0x35e92",
        "value": "0x0",
        "input": "0x60c060405234801561001057600080fd5b5060405161044738038061044783398101604081905261002f9161018a565b6001600160a01b03831660805260405161007c9061006a9061005590859060200161020c565b60408051601f19818403018152919052610088565b82604051602001610055929190610228565b60a0525061024e915050565b600060088260405160200161009d919061020c565b60408051601f198184030181529190528051602090910120901c92915050565b634e487b7160e01b600052604160045260246000fd5b60005b838110156100ee5781810151838201526020016100d6565b838111156100fd576000848401525b50505050565b600082601f83011261011457600080fd5b81516001600160401b038082111561012e5761012e6100bd565b604051601f8301601f19908116603f01168101908282118183101715610156576101566100bd565b8160405283815286602085880101111561016f57600080fd5b6101808460208301602089016100d3565b9695505050505050565b60008060006060848603121561019f57600080fd5b83516001600160a01b03811681146101b657600080fd5b60208501519093506001600160401b03808211156101d357600080fd5b6101df87838801610103565b935060408601519150808211156101f557600080fd5b5061020286828701610103565b9150509250925092565b6000825161021e8184602087016100d3565b9190910192915050565b828152600082516102408160208501602087016100d3565b919091016020019392505050565b60805160a0516101da61026d60003960005050600050506101da6000f3fe608060405234801561001057600080fd5b50600436106100415760003560e01c8063343576f514610046578063aad2406114610079578063faaaeef6146100ac575b600080fd5b61006661005436600461010f565b60006020819052908152604090205481565b6040519081526020015b60405180910390f35b61009c610087366004610131565b60016020526000908152604090205460ff1681565b6040519015158152602001610070565b6100f16100ba36600461014a565b506000908152600160208181526040808420805460ff19169093179092556001600160a01b03909516825293819052929092205550565b005b80356001600160a01b038116811461010a57600080fd5b919050565b60006020828403121561012157600080fd5b61012a826100f3565b9392505050565b60006020828403121561014357600080fd5b5035919050565b600080600080600061018080878903121561016457600080fd5b61016d876100f3565b955060208701359450604087013593506060870135925087818801111561019357600080fd5b50608086019050929550929590935056fea2646970667358221220b7cfb906c1f92909579c65cf26d133836d3354fe37f163a6dc7ee57b1844939b64736f6c634300080c0033000000000000000000000000469449f251692e0779667583026b5a1e99512157000000000000000000000000000000000000000000000000000000000000006000000000000000000000000000000000000000000000000000000000000000c0000000000000000000000000000000000000000000000000000000000000002c6170705f73746167696e675f36346439346330613463366436356630613633653035393933396535383838370000000000000000000000000000000000000000000000000000000000000000000000000000000000000000000000000000001972656769737465722d666f722d72657374616b65726567656e00000000000000",
        "nonce": "0x23",
        "chainId": "0xaa36a7"
      },
      "additionalContracts": [],
      "isFixedGasLimit": false
    },
    {
      "hash": "0xcbb30f36013aa7dba345aec0f45c34398a9f9eac68b764a39a7eef696308bd11",
      "transactionType": "CREATE",
      "contractName": "RegenChallengeManager",
      "contractAddress": "0x7e7852cd2d0f146a4b8a2b0851c797bdd491bf2c",
      "function": null,
      "arguments": [
        "0x0BF3dE8c5D3e8A2B34D2BEeB17ABfCeBaf363A59",
        "0x0F065350e728465E1f840b7226f58431868626A9"
      ],
      "transaction": {
        "from": "0x70a0c937a0cf7821c235a2defcc68da01fef92fa",
        "gas": "0x9ffd1",
        "value": "0x0",
        "input": "0x60a060405234801561001057600080fd5b506040516108ae3803806108ae83398101604081905261002f916100a2565b816001600160a01b03811661005e576040516335fdcccd60e21b81526000600482015260240160405180910390fd5b6001600160a01b03908116608052600180546001600160a01b03191692909116919091179055506100dc565b6001600160a01b038116811461009f57600080fd5b50565b600080604083850312156100b557600080fd5b82516100c08161008a565b60208401519092506100d18161008a565b809150509250929050565b6080516107b16100fd6000396000818160e4015261017a01526107b16000f3fe608060405234801561001057600080fd5b50600436106100625760003560e01c806301ffc9a7146100675780631a9761cc1461008f5780633998fdd3146100ba57806385572ffb146100cd578063b0f479a1146100e2578063c4d66de814610108575b600080fd5b61007a61007536600461036f565b610138565b60405190151581526020015b60405180910390f35b6001546100a2906001600160a01b031681565b6040516001600160a01b039091168152602001610086565b6000546100a2906001600160a01b031681565b6100e06100db3660046103a0565b61016f565b005b7f00000000000000000000000000000000000000000000000000000000000000006100a2565b6100e06101163660046103f0565b600080546001600160a01b0319166001600160a01b0392909216919091179055565b60006001600160e01b031982166385572ffb60e01b148061016957506001600160e01b031982166301ffc9a760e01b145b92915050565b336001600160a01b037f000000000000000000000000000000000000000000000000000000000000000016146101be576040516335fdcccd60e21b815233600482015260240160405180910390fd5b6101cf6101ca826105da565b6101d2565b50565b6101df8160600151610310565b600080600083606001518060200190518101906101fc9190610687565b60015460405163343576f560e01b81526001600160a01b038086166004830152949750929550909350600092169063343576f590602401602060405180830381865afa158015610250573d6000803e3d6000fd5b505050506040513d601f19601f8201168201806040525081019061027491906106be565b90506000670de0b6b3a76400006102946808592de812b2280000846106d7565b61029e9190610704565b90508281101561030857600054604051630e323b9960e21b81526001600160a01b038781166004830152909116906338c8ee6490602401600060405180830381600087803b1580156102ef57600080fd5b505af1158015610303573d6000803e3d6000fd5b505050505b505050505050565b6101cf816040516024016103249190610726565b60408051601f198184030181529190526020810180516001600160e01b03166305f3bfab60e11b17905280516a636f6e736f6c652e6c6f67602083016000808483855afa5050505050565b60006020828403121561038157600080fd5b81356001600160e01b03198116811461039957600080fd5b9392505050565b6000602082840312156103b257600080fd5b813567ffffffffffffffff8111156103c957600080fd5b820160a0818503121561039957600080fd5b6001600160a01b03811681146101cf57600080fd5b60006020828403121561040257600080fd5b8135610399816103db565b634e487b7160e01b600052604160045260246000fd5b6040805190810167ffffffffffffffff811182821017156104465761044661040d565b60405290565b60405160a0810167ffffffffffffffff811182821017156104465761044661040d565b604051601f8201601f1916810167ffffffffffffffff811182821017156104985761049861040d565b604052919050565b803567ffffffffffffffff811681146104b857600080fd5b919050565b600082601f8301126104ce57600080fd5b813567ffffffffffffffff8111156104e8576104e861040d565b6104fb601f8201601f191660200161046f565b81815284602083860101111561051057600080fd5b816020850160208301376000918101602001919091529392505050565b600082601f83011261053e57600080fd5b8135602067ffffffffffffffff82111561055a5761055a61040d565b610568818360051b0161046f565b82815260069290921b8401810191818101908684111561058757600080fd5b8286015b848110156105cf57604081890312156105a45760008081fd5b6105ac610423565b81356105b7816103db565b8152818501358582015283529183019160400161058b565b509695505050505050565b600060a082360312156105ec57600080fd5b6105f461044c565b82358152610604602084016104a0565b6020820152604083013567ffffffffffffffff8082111561062457600080fd5b610630368387016104bd565b6040840152606085013591508082111561064957600080fd5b610655368387016104bd565b6060840152608085013591508082111561066e57600080fd5b5061067b3682860161052d565b60808301525092915050565b60008060006060848603121561069c57600080fd5b83516106a7816103db565b602085015160409095015190969495509392505050565b6000602082840312156106d057600080fd5b5051919050565b60008160001904831182151516156106ff57634e487b7160e01b600052601160045260246000fd5b500290565b60008261072157634e487b7160e01b600052601260045260246000fd5b500490565b600060208083528351808285015260005b8181101561075357858101830151858201604001528201610737565b81811115610765576000604083870101525b50601f01601f191692909201604001939250505056fea26469706673582212204259ff8ffb4696d4d206d8dec562b0de6c52d90429b3df333390981d63f4e4be64736f6c634300080c00330000000000000000000000000bf3de8c5d3e8a2b34d2beeb17abfcebaf363a590000000000000000000000000f065350e728465e1f840b7226f58431868626a9",
        "nonce": "0x24",
        "chainId": "0xaa36a7"
      },
      "additionalContracts": [],
      "isFixedGasLimit": false
    },
    {
      "hash": "0xb0cfd1c21d5e993a38b529eb052f68571784d08191e21da4f6065d78715640cd",
      "transactionType": "CREATE",
      "contractName": "RegenServiceManager",
      "contractAddress": "0x1c02afbaabfdb49746d320f97b8efba031d11182",
      "function": null,
      "arguments": [
        "0x7e7852cD2D0f146a4B8A2b0851c797bdD491bf2C"
      ],
      "transaction": {
        "from": "0x70a0c937a0cf7821c235a2defcc68da01fef92fa",
        "gas": "0x2f4fc",
        "value": "0x0",
        "input": "0x60a060405234801561001057600080fd5b5060405161024438038061024483398101604081905261002f91610040565b6001600160a01b0316608052610070565b60006020828403121561005257600080fd5b81516001600160a01b038116811461006957600080fd5b9392505050565b6080516101b46100906000396000818160400152609e01526101b46000f3fe608060405234801561001057600080fd5b50600436106100365760003560e01c8063023a96fe1461003b57806338c8ee641461007e575b600080fd5b6100627f000000000000000000000000000000000000000000000000000000000000000081565b6040516001600160a01b03909116815260200160405180910390f35b61009161008c36600461014e565b610093565b005b336001600160a01b037f0000000000000000000000000000000000000000000000000000000000000000161461014b5760405162461bcd60e51b815260206004820152604d60248201527f4e6f742063616c6c61626c6520627920616e797468696e67206f74686572207460448201527f68616e207468652072656769737465726564206368616c6c656e6765206d616e60648201526c1859d95c8818dbdb9d1c9858dd609a1b608482015260a40160405180910390fd5b50565b60006020828403121561016057600080fd5b81356001600160a01b038116811461017757600080fd5b939250505056fea26469706673582212204dbaa70089dcf59f0d4508bbb6b124a6e5e1b41f0d05fc791d13d8fae7bcd7f564736f6c634300080c00330000000000000000000000007e7852cd2d0f146a4b8a2b0851c797bdd491bf2c",
        "nonce": "0x25",
        "chainId": "0xaa36a7"
      },
      "additionalContracts": [],
      "isFixedGasLimit": false
    },
    {
      "hash": "0x03146d1d84f01086274b66d85ac8caec73a95d6cc53e41365c71b31f42675ac6",
      "transactionType": "CALL",
      "contractName": "RegenChallengeManager",
      "contractAddress": "0x7e7852cd2d0f146a4b8a2b0851c797bdd491bf2c",
      "function": "initialize(address)",
      "arguments": [
        "0x1c02aFBaABfDB49746d320F97B8EfbA031D11182"
      ],
      "transaction": {
        "from": "0x70a0c937a0cf7821c235a2defcc68da01fef92fa",
        "to": "0x7e7852cd2d0f146a4b8a2b0851c797bdd491bf2c",
        "gas": "0xed41",
        "value": "0x0",
        "input": "0xc4d66de80000000000000000000000001c02afbaabfdb49746d320f97b8efba031d11182",
        "nonce": "0x26",
        "chainId": "0xaa36a7"
      },
      "additionalContracts": [],
      "isFixedGasLimit": false
    },
    {
      "hash": "0xed7c0fae5ae9b10f2b50613d7830f78cd6b0815101178fa1c48cc36e50cfd3e9",
      "transactionType": "CALL",
      "contractName": "DeployL1",
      "contractAddress": "0x5b73c5498c1e3b4dba84de0f1833c4a029d90519",
      "function": "getChain()",
      "arguments": [],
      "transaction": {
        "from": "0x70a0c937a0cf7821c235a2defcc68da01fef92fa",
        "to": "0x5b73c5498c1e3b4dba84de0f1833c4a029d90519",
        "gas": "0x71a6",
        "value": "0x0",
        "input": "0x32e21ae7",
        "nonce": "0x27",
        "chainId": "0xaa36a7"
      },
      "additionalContracts": [],
      "isFixedGasLimit": false
    }
  ],
  "receipts": [
    {
      "status": "0x1",
      "cumulativeGasUsed": "0xd36744",
      "logs": [],
      "logsBloom": "0x00000000000000000000000000000000000000000000000000000000000000000000000000000000000000000000000000000000000000000000000000000000000000000000000000000000000000000000000000000000000000000000000000000000000000000000000000000000000000000000000000000000000000000000000000000000000000000000000000000000000000000000000000000000000000000000000000000000000000000000000000000000000000000000000000000000000000000000000000000000000000000000000000000000000000000000000000000000000000000000000000000000000000000000000000000000",
      "type": "0x0",
      "transactionHash": "0x2bc7918386cf31fac4cce014d24a6d21c5963afe1b3cf7dd7ed08142de9dfc1e",
      "transactionIndex": "0x7e",
      "blockHash": "0xc965fdb2721e90027469cedea91575e8c5b853871f250b5e1053f4efd2333fa6",
      "blockNumber": "0x590839",
      "gasUsed": "0x297da",
      "effectiveGasPrice": "0x9059813b",
      "from": "0x70a0c937a0cf7821c235a2defcc68da01fef92fa",
      "to": null,
      "contractAddress": "0x0f065350e728465e1f840b7226f58431868626a9"
    },
    {
      "status": "0x1",
      "cumulativeGasUsed": "0xdb18eb",
      "logs": [],
      "logsBloom": "0x00000000000000000000000000000000000000000000000000000000000000000000000000000000000000000000000000000000000000000000000000000000000000000000000000000000000000000000000000000000000000000000000000000000000000000000000000000000000000000000000000000000000000000000000000000000000000000000000000000000000000000000000000000000000000000000000000000000000000000000000000000000000000000000000000000000000000000000000000000000000000000000000000000000000000000000000000000000000000000000000000000000000000000000000000000000",
      "type": "0x0",
      "transactionHash": "0xcbb30f36013aa7dba345aec0f45c34398a9f9eac68b764a39a7eef696308bd11",
      "transactionIndex": "0x7f",
      "blockHash": "0xc965fdb2721e90027469cedea91575e8c5b853871f250b5e1053f4efd2333fa6",
      "blockNumber": "0x590839",
      "gasUsed": "0x7b1a7",
      "effectiveGasPrice": "0x9059813b",
      "from": "0x70a0c937a0cf7821c235a2defcc68da01fef92fa",
      "to": null,
      "contractAddress": "0x7e7852cd2d0f146a4b8a2b0851c797bdd491bf2c"
    },
    {
      "status": "0x1",
      "cumulativeGasUsed": "0xdd5f5f",
      "logs": [],
      "logsBloom": "0x00000000000000000000000000000000000000000000000000000000000000000000000000000000000000000000000000000000000000000000000000000000000000000000000000000000000000000000000000000000000000000000000000000000000000000000000000000000000000000000000000000000000000000000000000000000000000000000000000000000000000000000000000000000000000000000000000000000000000000000000000000000000000000000000000000000000000000000000000000000000000000000000000000000000000000000000000000000000000000000000000000000000000000000000000000000",
      "type": "0x0",
      "transactionHash": "0xb0cfd1c21d5e993a38b529eb052f68571784d08191e21da4f6065d78715640cd",
      "transactionIndex": "0x80",
      "blockHash": "0xc965fdb2721e90027469cedea91575e8c5b853871f250b5e1053f4efd2333fa6",
      "blockNumber": "0x590839",
      "gasUsed": "0x24674",
      "effectiveGasPrice": "0x9059813b",
      "from": "0x70a0c937a0cf7821c235a2defcc68da01fef92fa",
      "to": null,
      "contractAddress": "0x1c02afbaabfdb49746d320f97b8efba031d11182"
    },
    {
      "status": "0x1",
      "cumulativeGasUsed": "0xde0b24",
      "logs": [],
      "logsBloom": "0x00000000000000000000000000000000000000000000000000000000000000000000000000000000000000000000000000000000000000000000000000000000000000000000000000000000000000000000000000000000000000000000000000000000000000000000000000000000000000000000000000000000000000000000000000000000000000000000000000000000000000000000000000000000000000000000000000000000000000000000000000000000000000000000000000000000000000000000000000000000000000000000000000000000000000000000000000000000000000000000000000000000000000000000000000000000",
      "type": "0x0",
      "transactionHash": "0x03146d1d84f01086274b66d85ac8caec73a95d6cc53e41365c71b31f42675ac6",
      "transactionIndex": "0x81",
      "blockHash": "0xc965fdb2721e90027469cedea91575e8c5b853871f250b5e1053f4efd2333fa6",
      "blockNumber": "0x590839",
      "gasUsed": "0xabc5",
      "effectiveGasPrice": "0x9059813b",
      "from": "0x70a0c937a0cf7821c235a2defcc68da01fef92fa",
      "to": "0x7e7852cd2d0f146a4b8a2b0851c797bdd491bf2c",
      "contractAddress": null
    },
    {
      "status": "0x1",
      "cumulativeGasUsed": "0xde5d6c",
      "logs": [],
      "logsBloom": "0x00000000000000000000000000000000000000000000000000000000000000000000000000000000000000000000000000000000000000000000000000000000000000000000000000000000000000000000000000000000000000000000000000000000000000000000000000000000000000000000000000000000000000000000000000000000000000000000000000000000000000000000000000000000000000000000000000000000000000000000000000000000000000000000000000000000000000000000000000000000000000000000000000000000000000000000000000000000000000000000000000000000000000000000000000000000",
      "type": "0x0",
      "transactionHash": "0xed7c0fae5ae9b10f2b50613d7830f78cd6b0815101178fa1c48cc36e50cfd3e9",
      "transactionIndex": "0x82",
      "blockHash": "0xc965fdb2721e90027469cedea91575e8c5b853871f250b5e1053f4efd2333fa6",
      "blockNumber": "0x590839",
      "gasUsed": "0x5248",
      "effectiveGasPrice": "0x9059813b",
      "from": "0x70a0c937a0cf7821c235a2defcc68da01fef92fa",
      "to": "0x5b73c5498c1e3b4dba84de0f1833c4a029d90519",
      "contractAddress": null
    }
  ],
  "libraries": [],
  "pending": [],
  "returns": {},
  "timestamp": 1714822747,
  "chain": 11155111,
  "commit": "9f98b7f"
}