{
  "transactions": [
    {
      "hash": "0xd6a433f95d43131cd5a3aa2b1b697df2f72df2d2eec01d7c5d689e7e746e3cf9",
      "transactionType": "CREATE",
      "contractName": "RegenPledgeRegistry.0.8.12",
      "contractAddress": "0xb22164a141ae887a41cb591cdaa3e3e124326450",
      "function": null,
      "arguments": null,
      "transaction": {
        "from": "0xf39fd6e51aad88f6f4ce6ab8827279cfffb92266",
        "gas": "0x251b0",
        "value": "0x0",
        "input": "0x608060405234801561001057600080fd5b50610126806100206000396000f3fe6080604052348015600f57600080fd5b506004361060325760003560e01c8063343576f5146037578063bfd3e829146066575b600080fd5b6054604236600460aa565b60006020819052908152604090205481565b60405190815260200160405180910390f35b608d607136600460c9565b6001600160a01b03909116600090815260208190526040902055565b005b80356001600160a01b038116811460a557600080fd5b919050565b60006020828403121560bb57600080fd5b60c282608f565b9392505050565b6000806040838503121560db57600080fd5b60e283608f565b94602093909301359350505056fea264697066735822122023092fb268e5fbf5729cf16ef92d49d8023cc6938bd2b4ef320d448bee6c59c464736f6c634300080c0033",
        "nonce": "0x1ca9",
        "chainId": "0xaa36a7"
      },
      "additionalContracts": [],
      "isFixedGasLimit": false
    },
    {
      "hash": "0xb2ef6db1154721de33be01836258933563a083070f90c7ec2a55027ca3a02807",
      "transactionType": "CREATE",
      "contractName": "RegenChallengeManager",
      "contractAddress": "0x0ce858e3619962823a2d7ba0b3c0f72ac6d5d346",
      "function": null,
      "arguments": [
        "0x0BF3dE8c5D3e8A2B34D2BEeB17ABfCeBaf363A59",
        "0xb22164A141ae887a41cB591cdAA3e3E124326450"
      ],
      "transaction": {
        "from": "0xf39fd6e51aad88f6f4ce6ab8827279cfffb92266",
        "gas": "0x9ffd1",
        "value": "0x0",
        "input": "0x60a060405234801561001057600080fd5b506040516108ae3803806108ae83398101604081905261002f916100a2565b816001600160a01b03811661005e576040516335fdcccd60e21b81526000600482015260240160405180910390fd5b6001600160a01b03908116608052600180546001600160a01b03191692909116919091179055506100dc565b6001600160a01b038116811461009f57600080fd5b50565b600080604083850312156100b557600080fd5b82516100c08161008a565b60208401519092506100d18161008a565b809150509250929050565b6080516107b16100fd6000396000818160e4015261017a01526107b16000f3fe608060405234801561001057600080fd5b50600436106100625760003560e01c806301ffc9a7146100675780631a9761cc1461008f5780633998fdd3146100ba57806385572ffb146100cd578063b0f479a1146100e2578063c4d66de814610108575b600080fd5b61007a61007536600461036f565b610138565b60405190151581526020015b60405180910390f35b6001546100a2906001600160a01b031681565b6040516001600160a01b039091168152602001610086565b6000546100a2906001600160a01b031681565b6100e06100db3660046103a0565b61016f565b005b7f00000000000000000000000000000000000000000000000000000000000000006100a2565b6100e06101163660046103f0565b600080546001600160a01b0319166001600160a01b0392909216919091179055565b60006001600160e01b031982166385572ffb60e01b148061016957506001600160e01b031982166301ffc9a760e01b145b92915050565b336001600160a01b037f000000000000000000000000000000000000000000000000000000000000000016146101be576040516335fdcccd60e21b815233600482015260240160405180910390fd5b6101cf6101ca826105da565b6101d2565b50565b6101df8160600151610310565b600080600083606001518060200190518101906101fc9190610687565b60015460405163343576f560e01b81526001600160a01b038086166004830152949750929550909350600092169063343576f590602401602060405180830381865afa158015610250573d6000803e3d6000fd5b505050506040513d601f19601f8201168201806040525081019061027491906106be565b90506000670de0b6b3a76400006102946808592de812b2280000846106d7565b61029e9190610704565b90508281101561030857600054604051630e323b9960e21b81526001600160a01b038781166004830152909116906338c8ee6490602401600060405180830381600087803b1580156102ef57600080fd5b505af1158015610303573d6000803e3d6000fd5b505050505b505050505050565b6101cf816040516024016103249190610726565b60408051601f198184030181529190526020810180516001600160e01b03166305f3bfab60e11b17905280516a636f6e736f6c652e6c6f67602083016000808483855afa5050505050565b60006020828403121561038157600080fd5b81356001600160e01b03198116811461039957600080fd5b9392505050565b6000602082840312156103b257600080fd5b813567ffffffffffffffff8111156103c957600080fd5b820160a0818503121561039957600080fd5b6001600160a01b03811681146101cf57600080fd5b60006020828403121561040257600080fd5b8135610399816103db565b634e487b7160e01b600052604160045260246000fd5b6040805190810167ffffffffffffffff811182821017156104465761044661040d565b60405290565b60405160a0810167ffffffffffffffff811182821017156104465761044661040d565b604051601f8201601f1916810167ffffffffffffffff811182821017156104985761049861040d565b604052919050565b803567ffffffffffffffff811681146104b857600080fd5b919050565b600082601f8301126104ce57600080fd5b813567ffffffffffffffff8111156104e8576104e861040d565b6104fb601f8201601f191660200161046f565b81815284602083860101111561051057600080fd5b816020850160208301376000918101602001919091529392505050565b600082601f83011261053e57600080fd5b8135602067ffffffffffffffff82111561055a5761055a61040d565b610568818360051b0161046f565b82815260069290921b8401810191818101908684111561058757600080fd5b8286015b848110156105cf57604081890312156105a45760008081fd5b6105ac610423565b81356105b7816103db565b8152818501358582015283529183019160400161058b565b509695505050505050565b600060a082360312156105ec57600080fd5b6105f461044c565b82358152610604602084016104a0565b6020820152604083013567ffffffffffffffff8082111561062457600080fd5b610630368387016104bd565b6040840152606085013591508082111561064957600080fd5b610655368387016104bd565b6060840152608085013591508082111561066e57600080fd5b5061067b3682860161052d565b60808301525092915050565b60008060006060848603121561069c57600080fd5b83516106a7816103db565b602085015160409095015190969495509392505050565b6000602082840312156106d057600080fd5b5051919050565b60008160001904831182151516156106ff57634e487b7160e01b600052601160045260246000fd5b500290565b60008261072157634e487b7160e01b600052601260045260246000fd5b500490565b600060208083528351808285015260005b8181101561075357858101830151858201604001528201610737565b81811115610765576000604083870101525b50601f01601f191692909201604001939250505056fea2646970667358221220e022b5636821aa6cd50dcc71a966d55847573dd24821fdffc12c4c104284be8664736f6c634300080c00330000000000000000000000000bf3de8c5d3e8a2b34d2beeb17abfcebaf363a59000000000000000000000000b22164a141ae887a41cb591cdaa3e3e124326450",
        "nonce": "0x1caa",
        "chainId": "0xaa36a7"
      },
      "additionalContracts": [],
      "isFixedGasLimit": false
    },
    {
      "hash": "0xfc87e8a1759722708d0c776a5d4ae5d887f6067f4badf5da3809b1f91b262286",
      "transactionType": "CREATE",
      "contractName": "RegenServiceManager",
      "contractAddress": "0x79cca2130f38137f4c17486e3174cb06d0c3f74b",
      "function": null,
      "arguments": [
        "0x0Ce858E3619962823a2D7Ba0b3c0F72AC6d5D346"
      ],
      "transaction": {
        "from": "0xf39fd6e51aad88f6f4ce6ab8827279cfffb92266",
        "gas": "0x2f50c",
        "value": "0x0",
        "input": "0x60a060405234801561001057600080fd5b5060405161024438038061024483398101604081905261002f91610040565b6001600160a01b0316608052610070565b60006020828403121561005257600080fd5b81516001600160a01b038116811461006957600080fd5b9392505050565b6080516101b46100906000396000818160400152609e01526101b46000f3fe608060405234801561001057600080fd5b50600436106100365760003560e01c8063023a96fe1461003b57806338c8ee641461007e575b600080fd5b6100627f000000000000000000000000000000000000000000000000000000000000000081565b6040516001600160a01b03909116815260200160405180910390f35b61009161008c36600461014e565b610093565b005b336001600160a01b037f0000000000000000000000000000000000000000000000000000000000000000161461014b5760405162461bcd60e51b815260206004820152604d60248201527f4e6f742063616c6c61626c6520627920616e797468696e67206f74686572207460448201527f68616e207468652072656769737465726564206368616c6c656e6765206d616e60648201526c1859d95c8818dbdb9d1c9858dd609a1b608482015260a40160405180910390fd5b50565b60006020828403121561016057600080fd5b81356001600160a01b038116811461017757600080fd5b939250505056fea2646970667358221220d71cdbd5d72abad608bb35aa182e0be10193e3c04102c6b5dfbbbbca514157f964736f6c634300080c00330000000000000000000000000ce858e3619962823a2d7ba0b3c0f72ac6d5d346",
        "nonce": "0x1cab",
        "chainId": "0xaa36a7"
      },
      "additionalContracts": [],
      "isFixedGasLimit": false
    },
    {
      "hash": "0x60fb927f6b1bc17d8f0211ab9ab5a88ba417d320afb132150922600a17b5138a",
      "transactionType": "CALL",
      "contractName": "RegenChallengeManager",
      "contractAddress": "0x0ce858e3619962823a2d7ba0b3c0f72ac6d5d346",
      "function": "initialize(address)",
      "arguments": [
        "0x79cca2130f38137f4c17486e3174Cb06D0C3F74b"
      ],
      "transaction": {
        "from": "0xf39fd6e51aad88f6f4ce6ab8827279cfffb92266",
        "to": "0x0ce858e3619962823a2d7ba0b3c0f72ac6d5d346",
        "gas": "0xed41",
        "value": "0x0",
        "input": "0xc4d66de800000000000000000000000079cca2130f38137f4c17486e3174cb06d0c3f74b",
        "nonce": "0x1cac",
        "chainId": "0xaa36a7"
      },
      "additionalContracts": [],
      "isFixedGasLimit": false
    },
    {
      "hash": "0x20f0b4df180b077d866b18df75fb87d1963ce11656aac73020e1d66cceb8a382",
      "transactionType": "CALL",
      "contractName": "DeployL1",
      "contractAddress": "0x5b73c5498c1e3b4dba84de0f1833c4a029d90519",
      "function": "getChain()",
      "arguments": [],
      "transaction": {
        "from": "0xf39fd6e51aad88f6f4ce6ab8827279cfffb92266",
        "to": "0x5b73c5498c1e3b4dba84de0f1833c4a029d90519",
        "gas": "0x71a6",
        "value": "0x0",
        "input": "0x32e21ae7",
        "nonce": "0x1cad",
        "chainId": "0xaa36a7"
      },
      "additionalContracts": [],
      "isFixedGasLimit": false
    }
  ],
  "receipts": [
    {
      "status": "0x1",
      "cumulativeGasUsed": "0x1c8c5",
      "logs": [],
      "logsBloom": "0x00000000000000000000000000000000000000000000000000000000000000000000000000000000000000000000000000000000000000000000000000000000000000000000000000000000000000000000000000000000000000000000000000000000000000000000000000000000000000000000000000000000000000000000000000000000000000000000000000000000000000000000000000000000000000000000000000000000000000000000000000000000000000000000000000000000000000000000000000000000000000000000000000000000000000000000000000000000000000000000000000000000000000000000000000000000",
      "type": "0x0",
      "transactionHash": "0xd6a433f95d43131cd5a3aa2b1b697df2f72df2d2eec01d7c5d689e7e746e3cf9",
      "transactionIndex": "0x0",
      "blockHash": "0x2fb9af61e9c02970771a1979c41a7a940011c41612e361c07d1b053815f0f651",
      "blockNumber": "0x590058",
      "gasUsed": "0x1c8c5",
      "effectiveGasPrice": "0x44e0906a",
      "blobGasPrice": "0x314d7ee6",
      "from": "0xf39fd6e51aad88f6f4ce6ab8827279cfffb92266",
      "to": null,
      "contractAddress": "0xb22164a141ae887a41cb591cdaa3e3e124326450",
      "root": "0x0000000000000000000000000000000000000000000000000000000000000000"
    },
    {
      "status": "0x1",
      "cumulativeGasUsed": "0x7b1a7",
      "logs": [],
      "logsBloom": "0x00000000000000000000000000000000000000000000000000000000000000000000000000000000000000000000000000000000000000000000000000000000000000000000000000000000000000000000000000000000000000000000000000000000000000000000000000000000000000000000000000000000000000000000000000000000000000000000000000000000000000000000000000000000000000000000000000000000000000000000000000000000000000000000000000000000000000000000000000000000000000000000000000000000000000000000000000000000000000000000000000000000000000000000000000000000",
      "type": "0x0",
      "transactionHash": "0xb2ef6db1154721de33be01836258933563a083070f90c7ec2a55027ca3a02807",
      "transactionIndex": "0x0",
      "blockHash": "0x924983fd6f29746becea4586f3a6cd1d6e431df886efbf0e3e5ee0803d085ead",
      "blockNumber": "0x590059",
      "gasUsed": "0x7b1a7",
      "effectiveGasPrice": "0x44e0906a",
      "blobGasPrice": "0x2bd31b6e",
      "from": "0xf39fd6e51aad88f6f4ce6ab8827279cfffb92266",
      "to": null,
      "contractAddress": "0x0ce858e3619962823a2d7ba0b3c0f72ac6d5d346",
      "root": "0x0000000000000000000000000000000000000000000000000000000000000000"
    },
    {
      "status": "0x1",
      "cumulativeGasUsed": "0x24680",
      "logs": [],
      "logsBloom": "0x00000000000000000000000000000000000000000000000000000000000000000000000000000000000000000000000000000000000000000000000000000000000000000000000000000000000000000000000000000000000000000000000000000000000000000000000000000000000000000000000000000000000000000000000000000000000000000000000000000000000000000000000000000000000000000000000000000000000000000000000000000000000000000000000000000000000000000000000000000000000000000000000000000000000000000000000000000000000000000000000000000000000000000000000000000000",
      "type": "0x0",
      "transactionHash": "0xfc87e8a1759722708d0c776a5d4ae5d887f6067f4badf5da3809b1f91b262286",
      "transactionIndex": "0x0",
      "blockHash": "0x2f0fcc5c26b2417f0deac191e6829ae9990664ce0729f021d33eb5b2c12875b6",
      "blockNumber": "0x59005a",
      "gasUsed": "0x24680",
      "effectiveGasPrice": "0x44e0906a",
      "blobGasPrice": "0x26f48a20",
      "from": "0xf39fd6e51aad88f6f4ce6ab8827279cfffb92266",
      "to": null,
      "contractAddress": "0x79cca2130f38137f4c17486e3174cb06d0c3f74b",
      "root": "0x0000000000000000000000000000000000000000000000000000000000000000"
    },
    {
      "status": "0x1",
      "cumulativeGasUsed": "0x2f245",
      "logs": [],
      "logsBloom": "0x00000000000000000000000000000000000000000000000000000000000000000000000000000000000000000000000000000000000000000000000000000000000000000000000000000000000000000000000000000000000000000000000000000000000000000000000000000000000000000000000000000000000000000000000000000000000000000000000000000000000000000000000000000000000000000000000000000000000000000000000000000000000000000000000000000000000000000000000000000000000000000000000000000000000000000000000000000000000000000000000000000000000000000000000000000000",
      "type": "0x0",
      "transactionHash": "0x60fb927f6b1bc17d8f0211ab9ab5a88ba417d320afb132150922600a17b5138a",
      "transactionIndex": "0x1",
      "blockHash": "0x2f0fcc5c26b2417f0deac191e6829ae9990664ce0729f021d33eb5b2c12875b6",
      "blockNumber": "0x59005a",
      "gasUsed": "0xabc5",
      "effectiveGasPrice": "0x44e0906a",
      "blobGasPrice": "0x26f48a20",
      "from": "0xf39fd6e51aad88f6f4ce6ab8827279cfffb92266",
      "to": "0x0ce858e3619962823a2d7ba0b3c0f72ac6d5d346",
      "contractAddress": null,
      "root": "0x0000000000000000000000000000000000000000000000000000000000000000"
    },
    {
      "status": "0x1",
      "cumulativeGasUsed": "0x3448d",
      "logs": [],
      "logsBloom": "0x00000000000000000000000000000000000000000000000000000000000000000000000000000000000000000000000000000000000000000000000000000000000000000000000000000000000000000000000000000000000000000000000000000000000000000000000000000000000000000000000000000000000000000000000000000000000000000000000000000000000000000000000000000000000000000000000000000000000000000000000000000000000000000000000000000000000000000000000000000000000000000000000000000000000000000000000000000000000000000000000000000000000000000000000000000000",
      "type": "0x0",
      "transactionHash": "0x20f0b4df180b077d866b18df75fb87d1963ce11656aac73020e1d66cceb8a382",
      "transactionIndex": "0x2",
      "blockHash": "0x2f0fcc5c26b2417f0deac191e6829ae9990664ce0729f021d33eb5b2c12875b6",
      "blockNumber": "0x59005a",
      "gasUsed": "0x5248",
      "effectiveGasPrice": "0x44e0906a",
      "blobGasPrice": "0x26f48a20",
      "from": "0xf39fd6e51aad88f6f4ce6ab8827279cfffb92266",
      "to": "0x5b73c5498c1e3b4dba84de0f1833c4a029d90519",
      "contractAddress": null,
      "root": "0x0000000000000000000000000000000000000000000000000000000000000000"
    }
  ],
  "libraries": [],
  "pending": [],
  "returns": {},
  "timestamp": 1714798538,
  "chain": 11155111,
  "commit": "e907624"
}