{
  "transactions": [
    {
      "hash": "0x0311a26e2333855f6ea634b8bd53e679191559ccd5a611260ade00a5c7b39bef",
      "transactionType": "CREATE",
      "contractName": "RegenPledgeRegistry",
      "contractAddress": "0x2012795f158d0d1453a9459441a38a67cafdcb82",
      "function": null,
      "arguments": [
        "0x469449f251692E0779667583026b5A1E99512157",
        "\"app_staging_64d94c0a4c6d65f0a63e059939e58887\"",
        "\"register-for-restakeregen\""
      ],
      "transaction": {
        "from": "0x70a0c937a0cf7821c235a2defcc68da01fef92fa",
        "gas": "0x38805",
        "value": "0x0",
        "input": "0x60c060405234801561001057600080fd5b5060405161047538038061047583398101604081905261002f91610193565b6001600160a01b0383166080526040516100859061007390610055908590602001610215565b60405160208183030381529060405261009160201b6100d81760201c565b82604051602001610055929190610231565b60a05250610257915050565b60006008826040516020016100a69190610215565b60408051601f198184030181529190528051602090910120901c92915050565b634e487b7160e01b600052604160045260246000fd5b60005b838110156100f75781810151838201526020016100df565b83811115610106576000848401525b50505050565b600082601f83011261011d57600080fd5b81516001600160401b0380821115610137576101376100c6565b604051601f8301601f19908116603f0116810190828211818310171561015f5761015f6100c6565b8160405283815286602085880101111561017857600080fd5b6101898460208301602089016100dc565b9695505050505050565b6000806000606084860312156101a857600080fd5b83516001600160a01b03811681146101bf57600080fd5b60208501519093506001600160401b03808211156101dc57600080fd5b6101e88783880161010c565b935060408601519150808211156101fe57600080fd5b5061020b8682870161010c565b9150509250925092565b600082516102278184602087016100dc565b9190910192915050565b828152600082516102498160208501602087016100dc565b919091016020019392505050565b60805160a0516101ff61027660003960005050600050506101ff6000f3fe608060405234801561001057600080fd5b50600436106100415760003560e01c8063343576f514610046578063aad2406114610079578063bfd3e829146100ac575b600080fd5b610066610054366004610129565b60006020819052908152604090205481565b6040519081526020015b60405180910390f35b61009c61008736600461014b565b60016020526000908152604090205460ff1681565b6040519015158152602001610070565b6100d66100ba366004610164565b6001600160a01b03909116600090815260208190526040902055565b005b60006008826040516020016100ed919061018e565b60408051601f198184030181529190528051602090910120901c92915050565b80356001600160a01b038116811461012457600080fd5b919050565b60006020828403121561013b57600080fd5b6101448261010d565b9392505050565b60006020828403121561015d57600080fd5b5035919050565b6000806040838503121561017757600080fd5b6101808361010d565b946020939093013593505050565b6000825160005b818110156101af5760208186018101518583015201610195565b818111156101be576000828501525b50919091019291505056fea264697066735822122078fa7760ee574e22c4f4fefb17fda1070f32aade38759eb04bd9aa31c48f9b7c64736f6c634300080c0033000000000000000000000000469449f251692e0779667583026b5a1e99512157000000000000000000000000000000000000000000000000000000000000006000000000000000000000000000000000000000000000000000000000000000c0000000000000000000000000000000000000000000000000000000000000002c6170705f73746167696e675f36346439346330613463366436356630613633653035393933396535383838370000000000000000000000000000000000000000000000000000000000000000000000000000000000000000000000000000001972656769737465722d666f722d72657374616b65726567656e00000000000000",
        "nonce": "0x37",
        "chainId": "0xaa36a7"
      },
      "additionalContracts": [],
      "isFixedGasLimit": false
    },
    {
      "hash": "0x2b6c23a80cfb8de2789b85a7f03235fe1e9ab0da9a128641d825dfa0dc0baef6",
      "transactionType": "CREATE",
      "contractName": "RegenChallengeManager",
      "contractAddress": "0x6361e6d782589f94f23c86d26943a8b2b4153ef7",
      "function": null,
      "arguments": [
        "0x0BF3dE8c5D3e8A2B34D2BEeB17ABfCeBaf363A59",
        "0x2012795F158D0D1453a9459441A38a67CafdCB82"
      ],
      "transaction": {
        "from": "0x70a0c937a0cf7821c235a2defcc68da01fef92fa",
        "gas": "0x9ffd1",
        "value": "0x0",
        "input": "0x60a060405234801561001057600080fd5b506040516108ae3803806108ae83398101604081905261002f916100a2565b816001600160a01b03811661005e576040516335fdcccd60e21b81526000600482015260240160405180910390fd5b6001600160a01b03908116608052600180546001600160a01b03191692909116919091179055506100dc565b6001600160a01b038116811461009f57600080fd5b50565b600080604083850312156100b557600080fd5b82516100c08161008a565b60208401519092506100d18161008a565b809150509250929050565b6080516107b16100fd6000396000818160e4015261017a01526107b16000f3fe608060405234801561001057600080fd5b50600436106100625760003560e01c806301ffc9a7146100675780631a9761cc1461008f5780633998fdd3146100ba57806385572ffb146100cd578063b0f479a1146100e2578063c4d66de814610108575b600080fd5b61007a61007536600461036f565b610138565b60405190151581526020015b60405180910390f35b6001546100a2906001600160a01b031681565b6040516001600160a01b039091168152602001610086565b6000546100a2906001600160a01b031681565b6100e06100db3660046103a0565b61016f565b005b7f00000000000000000000000000000000000000000000000000000000000000006100a2565b6100e06101163660046103f0565b600080546001600160a01b0319166001600160a01b0392909216919091179055565b60006001600160e01b031982166385572ffb60e01b148061016957506001600160e01b031982166301ffc9a760e01b145b92915050565b336001600160a01b037f000000000000000000000000000000000000000000000000000000000000000016146101be576040516335fdcccd60e21b815233600482015260240160405180910390fd5b6101cf6101ca826105da565b6101d2565b50565b6101df8160600151610310565b600080600083606001518060200190518101906101fc9190610687565b60015460405163343576f560e01b81526001600160a01b038086166004830152949750929550909350600092169063343576f590602401602060405180830381865afa158015610250573d6000803e3d6000fd5b505050506040513d601f19601f8201168201806040525081019061027491906106be565b90506000670de0b6b3a76400006102946808592de812b2280000846106d7565b61029e9190610704565b90508281101561030857600054604051630e323b9960e21b81526001600160a01b038781166004830152909116906338c8ee6490602401600060405180830381600087803b1580156102ef57600080fd5b505af1158015610303573d6000803e3d6000fd5b505050505b505050505050565b6101cf816040516024016103249190610726565b60408051601f198184030181529190526020810180516001600160e01b03166305f3bfab60e11b17905280516a636f6e736f6c652e6c6f67602083016000808483855afa5050505050565b60006020828403121561038157600080fd5b81356001600160e01b03198116811461039957600080fd5b9392505050565b6000602082840312156103b257600080fd5b813567ffffffffffffffff8111156103c957600080fd5b820160a0818503121561039957600080fd5b6001600160a01b03811681146101cf57600080fd5b60006020828403121561040257600080fd5b8135610399816103db565b634e487b7160e01b600052604160045260246000fd5b6040805190810167ffffffffffffffff811182821017156104465761044661040d565b60405290565b60405160a0810167ffffffffffffffff811182821017156104465761044661040d565b604051601f8201601f1916810167ffffffffffffffff811182821017156104985761049861040d565b604052919050565b803567ffffffffffffffff811681146104b857600080fd5b919050565b600082601f8301126104ce57600080fd5b813567ffffffffffffffff8111156104e8576104e861040d565b6104fb601f8201601f191660200161046f565b81815284602083860101111561051057600080fd5b816020850160208301376000918101602001919091529392505050565b600082601f83011261053e57600080fd5b8135602067ffffffffffffffff82111561055a5761055a61040d565b610568818360051b0161046f565b82815260069290921b8401810191818101908684111561058757600080fd5b8286015b848110156105cf57604081890312156105a45760008081fd5b6105ac610423565b81356105b7816103db565b8152818501358582015283529183019160400161058b565b509695505050505050565b600060a082360312156105ec57600080fd5b6105f461044c565b82358152610604602084016104a0565b6020820152604083013567ffffffffffffffff8082111561062457600080fd5b610630368387016104bd565b6040840152606085013591508082111561064957600080fd5b610655368387016104bd565b6060840152608085013591508082111561066e57600080fd5b5061067b3682860161052d565b60808301525092915050565b60008060006060848603121561069c57600080fd5b83516106a7816103db565b602085015160409095015190969495509392505050565b6000602082840312156106d057600080fd5b5051919050565b60008160001904831182151516156106ff57634e487b7160e01b600052601160045260246000fd5b500290565b60008261072157634e487b7160e01b600052601260045260246000fd5b500490565b600060208083528351808285015260005b8181101561075357858101830151858201604001528201610737565b81811115610765576000604083870101525b50601f01601f191692909201604001939250505056fea264697066735822122026544f82549e2387b20125a18fb786291cb3bb2ba2edbf72cca1a872c146176864736f6c634300080c00330000000000000000000000000bf3de8c5d3e8a2b34d2beeb17abfcebaf363a590000000000000000000000002012795f158d0d1453a9459441a38a67cafdcb82",
        "nonce": "0x38",
        "chainId": "0xaa36a7"
      },
      "additionalContracts": [],
      "isFixedGasLimit": false
    },
    {
      "hash": "0x2a78a9a7955e9b33f2ecb4d7eb805a1b7dbc0fe9085723fffb66a52fbcb1b686",
      "transactionType": "CREATE",
      "contractName": "RegenServiceManager",
      "contractAddress": "0xf1350320c083d1ef4ad6dc350321fcac81d75b13",
      "function": null,
      "arguments": [
        "0x6361E6D782589f94F23C86D26943A8b2b4153ef7"
      ],
      "transaction": {
        "from": "0x70a0c937a0cf7821c235a2defcc68da01fef92fa",
        "gas": "0x2f50c",
        "value": "0x0",
        "input": "0x60a060405234801561001057600080fd5b5060405161024438038061024483398101604081905261002f91610040565b6001600160a01b0316608052610070565b60006020828403121561005257600080fd5b81516001600160a01b038116811461006957600080fd5b9392505050565b6080516101b46100906000396000818160400152609e01526101b46000f3fe608060405234801561001057600080fd5b50600436106100365760003560e01c8063023a96fe1461003b57806338c8ee641461007e575b600080fd5b6100627f000000000000000000000000000000000000000000000000000000000000000081565b6040516001600160a01b03909116815260200160405180910390f35b61009161008c36600461014e565b610093565b005b336001600160a01b037f0000000000000000000000000000000000000000000000000000000000000000161461014b5760405162461bcd60e51b815260206004820152604d60248201527f4e6f742063616c6c61626c6520627920616e797468696e67206f74686572207460448201527f68616e207468652072656769737465726564206368616c6c656e6765206d616e60648201526c1859d95c8818dbdb9d1c9858dd609a1b608482015260a40160405180910390fd5b50565b60006020828403121561016057600080fd5b81356001600160a01b038116811461017757600080fd5b939250505056fea264697066735822122067dec406f9d058d77d7b6f59b6e811234ff0dbbf23f09731dad6e037a853917e64736f6c634300080c00330000000000000000000000006361e6d782589f94f23c86d26943a8b2b4153ef7",
        "nonce": "0x39",
        "chainId": "0xaa36a7"
      },
      "additionalContracts": [],
      "isFixedGasLimit": false
    },
    {
      "hash": "0xece1acd5e610706b1dea8d811d28f0f03d0f6e7d42ac59c1f5502d38e5c452fb",
      "transactionType": "CALL",
      "contractName": "RegenChallengeManager",
      "contractAddress": "0x6361e6d782589f94f23c86d26943a8b2b4153ef7",
      "function": "initialize(address)",
      "arguments": [
        "0xF1350320C083D1EF4AD6Dc350321fcAC81D75b13"
      ],
      "transaction": {
        "from": "0x70a0c937a0cf7821c235a2defcc68da01fef92fa",
        "to": "0x6361e6d782589f94f23c86d26943a8b2b4153ef7",
        "gas": "0xed41",
        "value": "0x0",
        "input": "0xc4d66de8000000000000000000000000f1350320c083d1ef4ad6dc350321fcac81d75b13",
        "nonce": "0x3a",
        "chainId": "0xaa36a7"
      },
      "additionalContracts": [],
      "isFixedGasLimit": false
    },
    {
      "hash": "0xe5a1e14a41bc8a9195d30ea6427ae2698f91eba63a96e860e83ef7f34f618c02",
      "transactionType": "CALL",
      "contractName": "DeployL1",
      "contractAddress": "0x5b73c5498c1e3b4dba84de0f1833c4a029d90519",
      "function": "getChain()",
      "arguments": [],
      "transaction": {
        "from": "0x70a0c937a0cf7821c235a2defcc68da01fef92fa",
        "to": "0x5b73c5498c1e3b4dba84de0f1833c4a029d90519",
        "gas": "0x71a6",
        "value": "0x0",
        "input": "0x32e21ae7",
        "nonce": "0x3b",
        "chainId": "0xaa36a7"
      },
      "additionalContracts": [],
      "isFixedGasLimit": false
    }
  ],
  "receipts": [
    {
      "status": "0x1",
      "cumulativeGasUsed": "0xb85846",
      "logs": [],
      "logsBloom": "0x00000000000000000000000000000000000000000000000000000000000000000000000000000000000000000000000000000000000000000000000000000000000000000000000000000000000000000000000000000000000000000000000000000000000000000000000000000000000000000000000000000000000000000000000000000000000000000000000000000000000000000000000000000000000000000000000000000000000000000000000000000000000000000000000000000000000000000000000000000000000000000000000000000000000000000000000000000000000000000000000000000000000000000000000000000000",
      "type": "0x0",
      "transactionHash": "0x0311a26e2333855f6ea634b8bd53e679191559ccd5a611260ade00a5c7b39bef",
      "transactionIndex": "0x71",
      "blockHash": "0x28630c2ed032e5b3278c239d3d64847eb2b433cb50f142e66e65f3f2618615bd",
      "blockNumber": "0x590966",
      "gasUsed": "0x2b7bf",
      "effectiveGasPrice": "0x1bd9829e5",
      "from": "0x70a0c937a0cf7821c235a2defcc68da01fef92fa",
      "to": null,
      "contractAddress": "0x2012795f158d0d1453a9459441a38a67cafdcb82"
    },
    {
      "status": "0x1",
      "cumulativeGasUsed": "0xc009ed",
      "logs": [],
      "logsBloom": "0x00000000000000000000000000000000000000000000000000000000000000000000000000000000000000000000000000000000000000000000000000000000000000000000000000000000000000000000000000000000000000000000000000000000000000000000000000000000000000000000000000000000000000000000000000000000000000000000000000000000000000000000000000000000000000000000000000000000000000000000000000000000000000000000000000000000000000000000000000000000000000000000000000000000000000000000000000000000000000000000000000000000000000000000000000000000",
      "type": "0x0",
      "transactionHash": "0x2b6c23a80cfb8de2789b85a7f03235fe1e9ab0da9a128641d825dfa0dc0baef6",
      "transactionIndex": "0x72",
      "blockHash": "0x28630c2ed032e5b3278c239d3d64847eb2b433cb50f142e66e65f3f2618615bd",
      "blockNumber": "0x590966",
      "gasUsed": "0x7b1a7",
      "effectiveGasPrice": "0x1bd9829e5",
      "from": "0x70a0c937a0cf7821c235a2defcc68da01fef92fa",
      "to": null,
      "contractAddress": "0x6361e6d782589f94f23c86d26943a8b2b4153ef7"
    },
    {
      "status": "0x1",
      "cumulativeGasUsed": "0xc2506d",
      "logs": [],
      "logsBloom": "0x00000000000000000000000000000000000000000000000000000000000000000000000000000000000000000000000000000000000000000000000000000000000000000000000000000000000000000000000000000000000000000000000000000000000000000000000000000000000000000000000000000000000000000000000000000000000000000000000000000000000000000000000000000000000000000000000000000000000000000000000000000000000000000000000000000000000000000000000000000000000000000000000000000000000000000000000000000000000000000000000000000000000000000000000000000000",
      "type": "0x0",
      "transactionHash": "0x2a78a9a7955e9b33f2ecb4d7eb805a1b7dbc0fe9085723fffb66a52fbcb1b686",
      "transactionIndex": "0x73",
      "blockHash": "0x28630c2ed032e5b3278c239d3d64847eb2b433cb50f142e66e65f3f2618615bd",
      "blockNumber": "0x590966",
      "gasUsed": "0x24680",
      "effectiveGasPrice": "0x1bd9829e5",
      "from": "0x70a0c937a0cf7821c235a2defcc68da01fef92fa",
      "to": null,
      "contractAddress": "0xf1350320c083d1ef4ad6dc350321fcac81d75b13"
    },
    {
      "status": "0x1",
      "cumulativeGasUsed": "0xc2fc32",
      "logs": [],
      "logsBloom": "0x00000000000000000000000000000000000000000000000000000000000000000000000000000000000000000000000000000000000000000000000000000000000000000000000000000000000000000000000000000000000000000000000000000000000000000000000000000000000000000000000000000000000000000000000000000000000000000000000000000000000000000000000000000000000000000000000000000000000000000000000000000000000000000000000000000000000000000000000000000000000000000000000000000000000000000000000000000000000000000000000000000000000000000000000000000000",
      "type": "0x0",
      "transactionHash": "0xece1acd5e610706b1dea8d811d28f0f03d0f6e7d42ac59c1f5502d38e5c452fb",
      "transactionIndex": "0x74",
      "blockHash": "0x28630c2ed032e5b3278c239d3d64847eb2b433cb50f142e66e65f3f2618615bd",
      "blockNumber": "0x590966",
      "gasUsed": "0xabc5",
      "effectiveGasPrice": "0x1bd9829e5",
      "from": "0x70a0c937a0cf7821c235a2defcc68da01fef92fa",
      "to": "0x6361e6d782589f94f23c86d26943a8b2b4153ef7",
      "contractAddress": null
    },
    {
      "status": "0x1",
      "cumulativeGasUsed": "0xc34e7a",
      "logs": [],
      "logsBloom": "0x00000000000000000000000000000000000000000000000000000000000000000000000000000000000000000000000000000000000000000000000000000000000000000000000000000000000000000000000000000000000000000000000000000000000000000000000000000000000000000000000000000000000000000000000000000000000000000000000000000000000000000000000000000000000000000000000000000000000000000000000000000000000000000000000000000000000000000000000000000000000000000000000000000000000000000000000000000000000000000000000000000000000000000000000000000000",
      "type": "0x0",
      "transactionHash": "0xe5a1e14a41bc8a9195d30ea6427ae2698f91eba63a96e860e83ef7f34f618c02",
      "transactionIndex": "0x75",
      "blockHash": "0x28630c2ed032e5b3278c239d3d64847eb2b433cb50f142e66e65f3f2618615bd",
      "blockNumber": "0x590966",
      "gasUsed": "0x5248",
      "effectiveGasPrice": "0x1bd9829e5",
      "from": "0x70a0c937a0cf7821c235a2defcc68da01fef92fa",
      "to": "0x5b73c5498c1e3b4dba84de0f1833c4a029d90519",
      "contractAddress": null
    }
  ],
  "libraries": [],
  "pending": [],
  "returns": {},
  "timestamp": 1714826538,
  "chain": 11155111,
  "commit": "adab546"
}