{
  "transactions": [
    {
      "hash": "0x44b23d220641507d22182c60c149b7a8c9f2c33df482253eeb9cd32f7a01ece5",
      "transactionType": "CREATE",
      "contractName": "RegenPledgeRegistry.0.8.12",
      "contractAddress": "0x62523fe84f21d252a9f1c8190806809f92180100",
      "function": null,
      "arguments": [
        "0x469449f251692E0779667583026b5A1E99512157",
        "\"app_staging_64d94c0a4c6d65f0a63e059939e58887\"",
        "\"register-for-restakeregen\""
      ],
      "transaction": {
        "from": "0x70a0c937a0cf7821c235a2defcc68da01fef92fa",
        "gas": "0x519ef",
        "value": "0x0",
        "input": "0x60c060405234801561001057600080fd5b506040516105ec3803806105ec83398101604081905261002f91610193565b6001600160a01b0383166080526040516100859061007390610055908590602001610215565b60405160208183030381529060405261009160201b6101de1760201c565b82604051602001610055929190610231565b60a05250610257915050565b60006008826040516020016100a69190610215565b60408051601f198184030181529190528051602090910120901c92915050565b634e487b7160e01b600052604160045260246000fd5b60005b838110156100f75781810151838201526020016100df565b83811115610106576000848401525b50505050565b600082601f83011261011d57600080fd5b81516001600160401b0380821115610137576101376100c6565b604051601f8301601f19908116603f0116810190828211818310171561015f5761015f6100c6565b8160405283815286602085880101111561017857600080fd5b6101898460208301602089016100dc565b9695505050505050565b6000806000606084860312156101a857600080fd5b83516001600160a01b03811681146101bf57600080fd5b60208501519093506001600160401b03808211156101dc57600080fd5b6101e88783880161010c565b935060408601519150808211156101fe57600080fd5b5061020b8682870161010c565b9150509250925092565b600082516102278184602087016100dc565b9190910192915050565b828152600082516102498160208501602087016100dc565b919091016020019392505050565b60805160a05161037161027b60003960006101360152600060c301526103716000f3fe608060405234801561001057600080fd5b50600436106100415760003560e01c8063343576f514610046578063aad2406114610079578063faaaeef6146100ac575b600080fd5b61006661005436600461022f565b60006020819052908152604090205481565b6040519081526020015b60405180910390f35b61009c610087366004610251565b60016020526000908152604090205460ff1681565b6040519015158152602001610070565b6100bf6100ba36600461026a565b6100c1565b005b7f00000000000000000000000000000000000000000000000000000000000000006001600160a01b0316633bc778e38460016101338960405160200161011f919060609190911b6bffffffffffffffffffffffff1916815260140190565b6040516020818303038152906040526101de565b867f0000000000000000000000000000000000000000000000000000000000000000876040518763ffffffff1660e01b8152600401610177969594939291906102c4565b60006040518083038186803b15801561018f57600080fd5b505afa1580156101a3573d6000803e3d6000fd5b50505060009283525050600160208181526040808420805460ff19169093179092556001600160a01b03909516825293819052929092205550565b60006008826040516020016101f39190610300565b60408051601f198184030181529190528051602090910120901c92915050565b80356001600160a01b038116811461022a57600080fd5b919050565b60006020828403121561024157600080fd5b61024a82610213565b9392505050565b60006020828403121561026357600080fd5b5035919050565b600080600080600061018080878903121561028457600080fd5b61028d87610213565b95506020870135945060408701359350606087013592508781880111156102b357600080fd5b506080860190509295509295909350565b60006101a0820190508782528660208301528560408301528460608301528360808301526101008360a084013760008152979650505050505050565b6000825160005b818110156103215760208186018101518583015201610307565b81811115610330576000828501525b50919091019291505056fea2646970667358221220a83eb596b3783cae00c4614c59d1fe17c954650616fa9628170be43f69ce890464736f6c634300080c0033000000000000000000000000469449f251692e0779667583026b5a1e99512157000000000000000000000000000000000000000000000000000000000000006000000000000000000000000000000000000000000000000000000000000000c0000000000000000000000000000000000000000000000000000000000000002c6170705f73746167696e675f36346439346330613463366436356630613633653035393933396535383838370000000000000000000000000000000000000000000000000000000000000000000000000000000000000000000000000000001972656769737465722d666f722d72657374616b65726567656e00000000000000",
        "nonce": "0x28",
        "chainId": "0xaa36a7"
      },
      "additionalContracts": [],
      "isFixedGasLimit": false
    },
    {
      "hash": "0xb3553238a4e1f5d3a520ed9c38bd0af42a38c0cf01fb5f9bc5301297c6cf0444",
      "transactionType": "CREATE",
      "contractName": "RegenChallengeManager.0.8.12",
      "contractAddress": "0xa5beca0fba17516c1f6b6711bf55401ca138366c",
      "function": null,
      "arguments": [
        "0x0BF3dE8c5D3e8A2B34D2BEeB17ABfCeBaf363A59",
        "0x62523fe84F21d252A9F1C8190806809f92180100"
      ],
      "transaction": {
        "from": "0x70a0c937a0cf7821c235a2defcc68da01fef92fa",
        "gas": "0x9ffc1",
        "value": "0x0",
        "input": "0x60a060405234801561001057600080fd5b506040516108ae3803806108ae83398101604081905261002f916100a2565b816001600160a01b03811661005e576040516335fdcccd60e21b81526000600482015260240160405180910390fd5b6001600160a01b03908116608052600180546001600160a01b03191692909116919091179055506100dc565b6001600160a01b038116811461009f57600080fd5b50565b600080604083850312156100b557600080fd5b82516100c08161008a565b60208401519092506100d18161008a565b809150509250929050565b6080516107b16100fd6000396000818160e4015261017a01526107b16000f3fe608060405234801561001057600080fd5b50600436106100625760003560e01c806301ffc9a7146100675780631a9761cc1461008f5780633998fdd3146100ba57806385572ffb146100cd578063b0f479a1146100e2578063c4d66de814610108575b600080fd5b61007a61007536600461036f565b610138565b60405190151581526020015b60405180910390f35b6001546100a2906001600160a01b031681565b6040516001600160a01b039091168152602001610086565b6000546100a2906001600160a01b031681565b6100e06100db3660046103a0565b61016f565b005b7f00000000000000000000000000000000000000000000000000000000000000006100a2565b6100e06101163660046103f0565b600080546001600160a01b0319166001600160a01b0392909216919091179055565b60006001600160e01b031982166385572ffb60e01b148061016957506001600160e01b031982166301ffc9a760e01b145b92915050565b336001600160a01b037f000000000000000000000000000000000000000000000000000000000000000016146101be576040516335fdcccd60e21b815233600482015260240160405180910390fd5b6101cf6101ca826105da565b6101d2565b50565b6101df8160600151610310565b600080600083606001518060200190518101906101fc9190610687565b60015460405163343576f560e01b81526001600160a01b038086166004830152949750929550909350600092169063343576f590602401602060405180830381865afa158015610250573d6000803e3d6000fd5b505050506040513d601f19601f8201168201806040525081019061027491906106be565b90506000670de0b6b3a76400006102946808592de812b2280000846106d7565b61029e9190610704565b90508281101561030857600054604051630e323b9960e21b81526001600160a01b038781166004830152909116906338c8ee6490602401600060405180830381600087803b1580156102ef57600080fd5b505af1158015610303573d6000803e3d6000fd5b505050505b505050505050565b6101cf816040516024016103249190610726565b60408051601f198184030181529190526020810180516001600160e01b03166305f3bfab60e11b17905280516a636f6e736f6c652e6c6f67602083016000808483855afa5050505050565b60006020828403121561038157600080fd5b81356001600160e01b03198116811461039957600080fd5b9392505050565b6000602082840312156103b257600080fd5b813567ffffffffffffffff8111156103c957600080fd5b820160a0818503121561039957600080fd5b6001600160a01b03811681146101cf57600080fd5b60006020828403121561040257600080fd5b8135610399816103db565b634e487b7160e01b600052604160045260246000fd5b6040805190810167ffffffffffffffff811182821017156104465761044661040d565b60405290565b60405160a0810167ffffffffffffffff811182821017156104465761044661040d565b604051601f8201601f1916810167ffffffffffffffff811182821017156104985761049861040d565b604052919050565b803567ffffffffffffffff811681146104b857600080fd5b919050565b600082601f8301126104ce57600080fd5b813567ffffffffffffffff8111156104e8576104e861040d565b6104fb601f8201601f191660200161046f565b81815284602083860101111561051057600080fd5b816020850160208301376000918101602001919091529392505050565b600082601f83011261053e57600080fd5b8135602067ffffffffffffffff82111561055a5761055a61040d565b610568818360051b0161046f565b82815260069290921b8401810191818101908684111561058757600080fd5b8286015b848110156105cf57604081890312156105a45760008081fd5b6105ac610423565b81356105b7816103db565b8152818501358582015283529183019160400161058b565b509695505050505050565b600060a082360312156105ec57600080fd5b6105f461044c565b82358152610604602084016104a0565b6020820152604083013567ffffffffffffffff8082111561062457600080fd5b610630368387016104bd565b6040840152606085013591508082111561064957600080fd5b610655368387016104bd565b6060840152608085013591508082111561066e57600080fd5b5061067b3682860161052d565b60808301525092915050565b60008060006060848603121561069c57600080fd5b83516106a7816103db565b602085015160409095015190969495509392505050565b6000602082840312156106d057600080fd5b5051919050565b60008160001904831182151516156106ff57634e487b7160e01b600052601160045260246000fd5b500290565b60008261072157634e487b7160e01b600052601260045260246000fd5b500490565b600060208083528351808285015260005b8181101561075357858101830151858201604001528201610737565b81811115610765576000604083870101525b50601f01601f191692909201604001939250505056fea2646970667358221220117d89b82ef9c02ea6c9ae4a632aad3b859e9c0f88549380b6fa189111287b2164736f6c634300080c00330000000000000000000000000bf3de8c5d3e8a2b34d2beeb17abfcebaf363a5900000000000000000000000062523fe84f21d252a9f1c8190806809f92180100",
        "nonce": "0x29",
        "chainId": "0xaa36a7"
      },
      "additionalContracts": [],
      "isFixedGasLimit": false
    },
    {
      "hash": "0x437c0033292eebb32aba4e2331836abbe7239e7ea007720a30d9d933a66330e1",
      "transactionType": "CREATE",
      "contractName": "RegenServiceManager.0.8.12",
      "contractAddress": "0x39642f7271c89a75e7b4c6eedeeee89a44247372",
      "function": null,
      "arguments": [
        "0xA5BEca0fBA17516C1F6B6711bf55401cA138366c"
      ],
      "transaction": {
        "from": "0x70a0c937a0cf7821c235a2defcc68da01fef92fa",
        "gas": "0x2f50c",
        "value": "0x0",
        "input": "0x60a060405234801561001057600080fd5b5060405161024438038061024483398101604081905261002f91610040565b6001600160a01b0316608052610070565b60006020828403121561005257600080fd5b81516001600160a01b038116811461006957600080fd5b9392505050565b6080516101b46100906000396000818160400152609e01526101b46000f3fe608060405234801561001057600080fd5b50600436106100365760003560e01c8063023a96fe1461003b57806338c8ee641461007e575b600080fd5b6100627f000000000000000000000000000000000000000000000000000000000000000081565b6040516001600160a01b03909116815260200160405180910390f35b61009161008c36600461014e565b610093565b005b336001600160a01b037f0000000000000000000000000000000000000000000000000000000000000000161461014b5760405162461bcd60e51b815260206004820152604d60248201527f4e6f742063616c6c61626c6520627920616e797468696e67206f74686572207460448201527f68616e207468652072656769737465726564206368616c6c656e6765206d616e60648201526c1859d95c8818dbdb9d1c9858dd609a1b608482015260a40160405180910390fd5b50565b60006020828403121561016057600080fd5b81356001600160a01b038116811461017757600080fd5b939250505056fea2646970667358221220d910ad52d9cfa664fd1440aaff678d03790c6b58b67f38a5884346f1f4f06fda64736f6c634300080c0033000000000000000000000000a5beca0fba17516c1f6b6711bf55401ca138366c",
        "nonce": "0x2a",
        "chainId": "0xaa36a7"
      },
      "additionalContracts": [],
      "isFixedGasLimit": false
    },
    {
      "hash": "0x2690a6387f60feef894ffede760eb0ecc78843512586d2cc849affc2189667ca",
      "transactionType": "CALL",
      "contractName": "RegenChallengeManager.0.8.12",
      "contractAddress": "0xa5beca0fba17516c1f6b6711bf55401ca138366c",
      "function": "initialize(address)",
      "arguments": [
        "0x39642f7271c89a75e7B4c6eedEeEE89a44247372"
      ],
      "transaction": {
        "from": "0x70a0c937a0cf7821c235a2defcc68da01fef92fa",
        "to": "0xa5beca0fba17516c1f6b6711bf55401ca138366c",
        "gas": "0xed41",
        "value": "0x0",
        "input": "0xc4d66de800000000000000000000000039642f7271c89a75e7b4c6eedeeee89a44247372",
        "nonce": "0x2b",
        "chainId": "0xaa36a7"
      },
      "additionalContracts": [],
      "isFixedGasLimit": false
    },
    {
      "hash": "0xfdf453a7e95410bc1415e24b4a0019c8da269f2e124ddcb109397d51500f6665",
      "transactionType": "CALL",
      "contractName": "DeployL1",
      "contractAddress": "0x5b73c5498c1e3b4dba84de0f1833c4a029d90519",
      "function": "getChain()",
      "arguments": [],
      "transaction": {
        "from": "0x70a0c937a0cf7821c235a2defcc68da01fef92fa",
        "to": "0x5b73c5498c1e3b4dba84de0f1833c4a029d90519",
        "gas": "0x71a6",
        "value": "0x0",
        "input": "0x32e21ae7",
        "nonce": "0x2c",
        "chainId": "0xaa36a7"
      },
      "additionalContracts": [],
      "isFixedGasLimit": false
    }
  ],
  "receipts": [
    {
      "status": "0x1",
      "cumulativeGasUsed": "0x936255",
      "logs": [],
      "logsBloom": "0x00000000000000000000000000000000000000000000000000000000000000000000000000000000000000000000000000000000000000000000000000000000000000000000000000000000000000000000000000000000000000000000000000000000000000000000000000000000000000000000000000000000000000000000000000000000000000000000000000000000000000000000000000000000000000000000000000000000000000000000000000000000000000000000000000000000000000000000000000000000000000000000000000000000000000000000000000000000000000000000000000000000000000000000000000000000",
      "type": "0x0",
      "transactionHash": "0x44b23d220641507d22182c60c149b7a8c9f2c33df482253eeb9cd32f7a01ece5",
      "transactionIndex": "0x6b",
      "blockHash": "0xa5358b68f4ced0054e604bfbe6fa80ba54374fb4738090532f27f09a0c8d41e3",
      "blockNumber": "0x590865",
      "gasUsed": "0x3ed01",
      "effectiveGasPrice": "0x99cba75b",
      "from": "0x70a0c937a0cf7821c235a2defcc68da01fef92fa",
      "to": null,
      "contractAddress": "0x62523fe84f21d252a9f1c8190806809f92180100"
    },
    {
      "status": "0x1",
      "cumulativeGasUsed": "0x9b13f0",
      "logs": [],
      "logsBloom": "0x00000000000000000000000000000000000000000000000000000000000000000000000000000000000000000000000000000000000000000000000000000000000000000000000000000000000000000000000000000000000000000000000000000000000000000000000000000000000000000000000000000000000000000000000000000000000000000000000000000000000000000000000000000000000000000000000000000000000000000000000000000000000000000000000000000000000000000000000000000000000000000000000000000000000000000000000000000000000000000000000000000000000000000000000000000000",
      "type": "0x0",
      "transactionHash": "0xb3553238a4e1f5d3a520ed9c38bd0af42a38c0cf01fb5f9bc5301297c6cf0444",
      "transactionIndex": "0x6c",
      "blockHash": "0xa5358b68f4ced0054e604bfbe6fa80ba54374fb4738090532f27f09a0c8d41e3",
      "blockNumber": "0x590865",
      "gasUsed": "0x7b19b",
      "effectiveGasPrice": "0x99cba75b",
      "from": "0x70a0c937a0cf7821c235a2defcc68da01fef92fa",
      "to": null,
      "contractAddress": "0xa5beca0fba17516c1f6b6711bf55401ca138366c"
    },
    {
      "status": "0x1",
      "cumulativeGasUsed": "0x9d5a70",
      "logs": [],
      "logsBloom": "0x00000000000000000000000000000000000000000000000000000000000000000000000000000000000000000000000000000000000000000000000000000000000000000000000000000000000000000000000000000000000000000000000000000000000000000000000000000000000000000000000000000000000000000000000000000000000000000000000000000000000000000000000000000000000000000000000000000000000000000000000000000000000000000000000000000000000000000000000000000000000000000000000000000000000000000000000000000000000000000000000000000000000000000000000000000000",
      "type": "0x0",
      "transactionHash": "0x437c0033292eebb32aba4e2331836abbe7239e7ea007720a30d9d933a66330e1",
      "transactionIndex": "0x6d",
      "blockHash": "0xa5358b68f4ced0054e604bfbe6fa80ba54374fb4738090532f27f09a0c8d41e3",
      "blockNumber": "0x590865",
      "gasUsed": "0x24680",
      "effectiveGasPrice": "0x99cba75b",
      "from": "0x70a0c937a0cf7821c235a2defcc68da01fef92fa",
      "to": null,
      "contractAddress": "0x39642f7271c89a75e7b4c6eedeeee89a44247372"
    },
    {
      "status": "0x1",
      "cumulativeGasUsed": "0x9e0635",
      "logs": [],
      "logsBloom": "0x00000000000000000000000000000000000000000000000000000000000000000000000000000000000000000000000000000000000000000000000000000000000000000000000000000000000000000000000000000000000000000000000000000000000000000000000000000000000000000000000000000000000000000000000000000000000000000000000000000000000000000000000000000000000000000000000000000000000000000000000000000000000000000000000000000000000000000000000000000000000000000000000000000000000000000000000000000000000000000000000000000000000000000000000000000000",
      "type": "0x0",
      "transactionHash": "0x2690a6387f60feef894ffede760eb0ecc78843512586d2cc849affc2189667ca",
      "transactionIndex": "0x6e",
      "blockHash": "0xa5358b68f4ced0054e604bfbe6fa80ba54374fb4738090532f27f09a0c8d41e3",
      "blockNumber": "0x590865",
      "gasUsed": "0xabc5",
      "effectiveGasPrice": "0x99cba75b",
      "from": "0x70a0c937a0cf7821c235a2defcc68da01fef92fa",
      "to": "0xa5beca0fba17516c1f6b6711bf55401ca138366c",
      "contractAddress": null
    },
    {
      "status": "0x1",
      "cumulativeGasUsed": "0x9e587d",
      "logs": [],
      "logsBloom": "0x00000000000000000000000000000000000000000000000000000000000000000000000000000000000000000000000000000000000000000000000000000000000000000000000000000000000000000000000000000000000000000000000000000000000000000000000000000000000000000000000000000000000000000000000000000000000000000000000000000000000000000000000000000000000000000000000000000000000000000000000000000000000000000000000000000000000000000000000000000000000000000000000000000000000000000000000000000000000000000000000000000000000000000000000000000000",
      "type": "0x0",
      "transactionHash": "0xfdf453a7e95410bc1415e24b4a0019c8da269f2e124ddcb109397d51500f6665",
      "transactionIndex": "0x6f",
      "blockHash": "0xa5358b68f4ced0054e604bfbe6fa80ba54374fb4738090532f27f09a0c8d41e3",
      "blockNumber": "0x590865",
      "gasUsed": "0x5248",
      "effectiveGasPrice": "0x99cba75b",
      "from": "0x70a0c937a0cf7821c235a2defcc68da01fef92fa",
      "to": "0x5b73c5498c1e3b4dba84de0f1833c4a029d90519",
      "contractAddress": null
    }
  ],
  "libraries": [],
  "pending": [],
  "returns": {},
  "timestamp": 1714823297,
  "chain": 11155111,
  "commit": "9f98b7f"
}