{
  "transactions": [
    {
      "hash": "0xe717975d0d396467f2edb06764055a297da17915250da9577a8232e532dd93ed",
      "transactionType": "CREATE",
      "contractName": "RegenPledgeRegistry",
      "contractAddress": "0x855839aa63e7218b26c01344a83c3b8c4c1924b6",
      "function": null,
      "arguments": [
        "0x469449f251692E0779667583026b5A1E99512157",
        "\"app_staging_64d94c0a4c6d65f0a63e059939e58887\"",
        "\"register-for-restakeregen\""
      ],
      "transaction": {
        "from": "0x70a0c937a0cf7821c235a2defcc68da01fef92fa",
        "gas": "0x38805",
        "value": "0x0",
        "input": "0x60c060405234801561001057600080fd5b5060405161047538038061047583398101604081905261002f91610193565b6001600160a01b0383166080526040516100859061007390610055908590602001610215565b60405160208183030381529060405261009160201b6100d81760201c565b82604051602001610055929190610231565b60a05250610257915050565b60006008826040516020016100a69190610215565b60408051601f198184030181529190528051602090910120901c92915050565b634e487b7160e01b600052604160045260246000fd5b60005b838110156100f75781810151838201526020016100df565b83811115610106576000848401525b50505050565b600082601f83011261011d57600080fd5b81516001600160401b0380821115610137576101376100c6565b604051601f8301601f19908116603f0116810190828211818310171561015f5761015f6100c6565b8160405283815286602085880101111561017857600080fd5b6101898460208301602089016100dc565b9695505050505050565b6000806000606084860312156101a857600080fd5b83516001600160a01b03811681146101bf57600080fd5b60208501519093506001600160401b03808211156101dc57600080fd5b6101e88783880161010c565b935060408601519150808211156101fe57600080fd5b5061020b8682870161010c565b9150509250925092565b600082516102278184602087016100dc565b9190910192915050565b828152600082516102498160208501602087016100dc565b919091016020019392505050565b60805160a0516101ff61027660003960005050600050506101ff6000f3fe608060405234801561001057600080fd5b50600436106100415760003560e01c8063343576f514610046578063aad2406114610079578063bfd3e829146100ac575b600080fd5b610066610054366004610129565b60006020819052908152604090205481565b6040519081526020015b60405180910390f35b61009c61008736600461014b565b60016020526000908152604090205460ff1681565b6040519015158152602001610070565b6100d66100ba366004610164565b6001600160a01b03909116600090815260208190526040902055565b005b60006008826040516020016100ed919061018e565b60408051601f198184030181529190528051602090910120901c92915050565b80356001600160a01b038116811461012457600080fd5b919050565b60006020828403121561013b57600080fd5b6101448261010d565b9392505050565b60006020828403121561015d57600080fd5b5035919050565b6000806040838503121561017757600080fd5b6101808361010d565b946020939093013593505050565b6000825160005b818110156101af5760208186018101518583015201610195565b818111156101be576000828501525b50919091019291505056fea264697066735822122078fa7760ee574e22c4f4fefb17fda1070f32aade38759eb04bd9aa31c48f9b7c64736f6c634300080c0033000000000000000000000000469449f251692e0779667583026b5a1e99512157000000000000000000000000000000000000000000000000000000000000006000000000000000000000000000000000000000000000000000000000000000c0000000000000000000000000000000000000000000000000000000000000002c6170705f73746167696e675f36346439346330613463366436356630613633653035393933396535383838370000000000000000000000000000000000000000000000000000000000000000000000000000000000000000000000000000001972656769737465722d666f722d72657374616b65726567656e00000000000000",
        "nonce": "0x3c",
        "chainId": "0xaa36a7"
      },
      "additionalContracts": [],
      "isFixedGasLimit": false
    },
    {
      "hash": "0xf170d0eebef53bc1140baef468db90539e4942ea8c0b7987dbcb125c04abd821",
      "transactionType": "CREATE",
      "contractName": "RegenChallengeManager",
      "contractAddress": "0xb83dbc74d715b1679352016e61b53c2c766f1a2f",
      "function": null,
      "arguments": [
        "0x0BF3dE8c5D3e8A2B34D2BEeB17ABfCeBaf363A59",
        "0x855839aa63E7218B26C01344A83C3B8c4c1924B6"
      ],
      "transaction": {
        "from": "0x70a0c937a0cf7821c235a2defcc68da01fef92fa",
        "gas": "0xa2e48",
        "value": "0x0",
        "input": "0x60a060405234801561001057600080fd5b506040516108d83803806108d883398101604081905261002f916100a2565b816001600160a01b03811661005e576040516335fdcccd60e21b81526000600482015260240160405180910390fd5b6001600160a01b03908116608052600180546001600160a01b03191692909116919091179055506100dc565b6001600160a01b038116811461009f57600080fd5b50565b600080604083850312156100b557600080fd5b82516100c08161008a565b60208401519092506100d18161008a565b809150509250929050565b6080516107db6100fd6000396000818160e4015261017a01526107db6000f3fe608060405234801561001057600080fd5b50600436106100625760003560e01c806301ffc9a7146100675780631a9761cc1461008f5780633998fdd3146100ba57806385572ffb146100cd578063b0f479a1146100e2578063c4d66de814610108575b600080fd5b61007a610075366004610399565b610138565b60405190151581526020015b60405180910390f35b6001546100a2906001600160a01b031681565b6040516001600160a01b039091168152602001610086565b6000546100a2906001600160a01b031681565b6100e06100db3660046103ca565b61016f565b005b7f00000000000000000000000000000000000000000000000000000000000000006100a2565b6100e061011636600461041a565b600080546001600160a01b0319166001600160a01b0392909216919091179055565b60006001600160e01b031982166385572ffb60e01b148061016957506001600160e01b031982166301ffc9a760e01b145b92915050565b336001600160a01b037f000000000000000000000000000000000000000000000000000000000000000016146101be576040516335fdcccd60e21b815233600482015260240160405180910390fd5b6101cf6101ca82610604565b6101d2565b50565b6101df816060015161033a565b600080600083606001518060200190518101906101fc91906106b1565b60015460405163343576f560e01b81526001600160a01b038086166004830152949750929550909350600092169063343576f590602401602060405180830381865afa158015610250573d6000803e3d6000fd5b505050506040513d601f19601f8201168201806040525081019061027491906106e8565b90506000670de0b6b3a76400006102946808592de812b228000084610701565b61029e919061072e565b9050828110156102ef57604080516001600160a01b0387168152602081018590527f085e01e098d826af106a84c16d0c1814dd3ac9727c6820b379e73259ad875445910160405180910390a1610332565b604080516001600160a01b0387168152602081018590527f57b9b7b54d3244a0a0c9ba292b9ffe555ee5a2328ea3e04340346aa4cb276fd6910160405180910390a15b505050505050565b6101cf8160405160240161034e9190610750565b60408051601f198184030181529190526020810180516001600160e01b03166305f3bfab60e11b17905280516a636f6e736f6c652e6c6f67602083016000808483855afa5050505050565b6000602082840312156103ab57600080fd5b81356001600160e01b0319811681146103c357600080fd5b9392505050565b6000602082840312156103dc57600080fd5b813567ffffffffffffffff8111156103f357600080fd5b820160a081850312156103c357600080fd5b6001600160a01b03811681146101cf57600080fd5b60006020828403121561042c57600080fd5b81356103c381610405565b634e487b7160e01b600052604160045260246000fd5b6040805190810167ffffffffffffffff8111828210171561047057610470610437565b60405290565b60405160a0810167ffffffffffffffff8111828210171561047057610470610437565b604051601f8201601f1916810167ffffffffffffffff811182821017156104c2576104c2610437565b604052919050565b803567ffffffffffffffff811681146104e257600080fd5b919050565b600082601f8301126104f857600080fd5b813567ffffffffffffffff81111561051257610512610437565b610525601f8201601f1916602001610499565b81815284602083860101111561053a57600080fd5b816020850160208301376000918101602001919091529392505050565b600082601f83011261056857600080fd5b8135602067ffffffffffffffff82111561058457610584610437565b610592818360051b01610499565b82815260069290921b840181019181810190868411156105b157600080fd5b8286015b848110156105f957604081890312156105ce5760008081fd5b6105d661044d565b81356105e181610405565b815281850135858201528352918301916040016105b5565b509695505050505050565b600060a0823603121561061657600080fd5b61061e610476565b8235815261062e602084016104ca565b6020820152604083013567ffffffffffffffff8082111561064e57600080fd5b61065a368387016104e7565b6040840152606085013591508082111561067357600080fd5b61067f368387016104e7565b6060840152608085013591508082111561069857600080fd5b506106a536828601610557565b60808301525092915050565b6000806000606084860312156106c657600080fd5b83516106d181610405565b602085015160409095015190969495509392505050565b6000602082840312156106fa57600080fd5b5051919050565b600081600019048311821515161561072957634e487b7160e01b600052601160045260246000fd5b500290565b60008261074b57634e487b7160e01b600052601260045260246000fd5b500490565b600060208083528351808285015260005b8181101561077d57858101830151858201604001528201610761565b8181111561078f576000604083870101525b50601f01601f191692909201604001939250505056fea264697066735822122057a7c9efd09e665d5eb774dd60a01e0ffc908335f3fafde18bd143f28dd0e55264736f6c634300080c00330000000000000000000000000bf3de8c5d3e8a2b34d2beeb17abfcebaf363a59000000000000000000000000855839aa63e7218b26c01344a83c3b8c4c1924b6",
        "nonce": "0x3d",
        "chainId": "0xaa36a7"
      },
      "additionalContracts": [],
      "isFixedGasLimit": false
    },
    {
      "hash": "0xaff3d36fae69c71557940cad3b2f7bacf198e9784ff2173a2210c0e2ed5cfc24",
      "transactionType": "CREATE",
      "contractName": "RegenServiceManager",
      "contractAddress": "0x0f8bd07823b8ceb46025592e852430edc3e07a6c",
      "function": null,
      "arguments": [
        "0xb83dbC74d715b1679352016E61b53C2c766f1A2F"
      ],
      "transaction": {
        "from": "0x70a0c937a0cf7821c235a2defcc68da01fef92fa",
        "gas": "0x2f50c",
        "value": "0x0",
        "input": "0x60a060405234801561001057600080fd5b5060405161024438038061024483398101604081905261002f91610040565b6001600160a01b0316608052610070565b60006020828403121561005257600080fd5b81516001600160a01b038116811461006957600080fd5b9392505050565b6080516101b46100906000396000818160400152609e01526101b46000f3fe608060405234801561001057600080fd5b50600436106100365760003560e01c8063023a96fe1461003b57806338c8ee641461007e575b600080fd5b6100627f000000000000000000000000000000000000000000000000000000000000000081565b6040516001600160a01b03909116815260200160405180910390f35b61009161008c36600461014e565b610093565b005b336001600160a01b037f0000000000000000000000000000000000000000000000000000000000000000161461014b5760405162461bcd60e51b815260206004820152604d60248201527f4e6f742063616c6c61626c6520627920616e797468696e67206f74686572207460448201527f68616e207468652072656769737465726564206368616c6c656e6765206d616e60648201526c1859d95c8818dbdb9d1c9858dd609a1b608482015260a40160405180910390fd5b50565b60006020828403121561016057600080fd5b81356001600160a01b038116811461017757600080fd5b939250505056fea26469706673582212207bbb6f78e623aa3b621dbc4ea2a0520ca288497aaa9750b9ecd2a78ea59bd63664736f6c634300080c0033000000000000000000000000b83dbc74d715b1679352016e61b53c2c766f1a2f",
        "nonce": "0x3e",
        "chainId": "0xaa36a7"
      },
      "additionalContracts": [],
      "isFixedGasLimit": false
    },
    {
      "hash": "0x39d7731534bcb10e974fae01a2bd71bfb63257a2eace98786d2d863cf6174e9c",
      "transactionType": "CALL",
      "contractName": "RegenChallengeManager",
      "contractAddress": "0xb83dbc74d715b1679352016e61b53c2c766f1a2f",
      "function": "initialize(address)",
      "arguments": [
        "0x0F8bd07823b8CEB46025592E852430EDC3e07a6c"
      ],
      "transaction": {
        "from": "0x70a0c937a0cf7821c235a2defcc68da01fef92fa",
        "to": "0xb83dbc74d715b1679352016e61b53c2c766f1a2f",
        "gas": "0xed41",
        "value": "0x0",
        "input": "0xc4d66de80000000000000000000000000f8bd07823b8ceb46025592e852430edc3e07a6c",
        "nonce": "0x3f",
        "chainId": "0xaa36a7"
      },
      "additionalContracts": [],
      "isFixedGasLimit": false
    },
    {
      "hash": "0x419a67fbc1343f7d1bd784a17a7ea747dfa460721291a2ea65810ba3914b37d0",
      "transactionType": "CALL",
      "contractName": "DeployL1",
      "contractAddress": "0x5b73c5498c1e3b4dba84de0f1833c4a029d90519",
      "function": "getChain()",
      "arguments": [],
      "transaction": {
        "from": "0x70a0c937a0cf7821c235a2defcc68da01fef92fa",
        "to": "0x5b73c5498c1e3b4dba84de0f1833c4a029d90519",
        "gas": "0x71a6",
        "value": "0x0",
        "input": "0x32e21ae7",
        "nonce": "0x40",
        "chainId": "0xaa36a7"
      },
      "additionalContracts": [],
      "isFixedGasLimit": false
    }
  ],
  "receipts": [
    {
      "status": "0x1",
      "cumulativeGasUsed": "0xc85565",
      "logs": [],
      "logsBloom": "0x00000000000000000000000000000000000000000000000000000000000000000000000000000000000000000000000000000000000000000000000000000000000000000000000000000000000000000000000000000000000000000000000000000000000000000000000000000000000000000000000000000000000000000000000000000000000000000000000000000000000000000000000000000000000000000000000000000000000000000000000000000000000000000000000000000000000000000000000000000000000000000000000000000000000000000000000000000000000000000000000000000000000000000000000000000000",
      "type": "0x0",
      "transactionHash": "0xe717975d0d396467f2edb06764055a297da17915250da9577a8232e532dd93ed",
      "transactionIndex": "0x60",
      "blockHash": "0x13712dccd306049419d5387391ba953ff52661db24e5eb31f360113f33577406",
      "blockNumber": "0x590a6f",
      "gasUsed": "0x2b7bf",
      "effectiveGasPrice": "0x5d72d9bc7",
      "from": "0x70a0c937a0cf7821c235a2defcc68da01fef92fa",
      "to": null,
      "contractAddress": "0x855839aa63e7218b26c01344a83c3b8c4c1924b6"
    },
    {
      "status": "0x1",
      "cumulativeGasUsed": "0xd02acc",
      "logs": [],
      "logsBloom": "0x00000000000000000000000000000000000000000000000000000000000000000000000000000000000000000000000000000000000000000000000000000000000000000000000000000000000000000000000000000000000000000000000000000000000000000000000000000000000000000000000000000000000000000000000000000000000000000000000000000000000000000000000000000000000000000000000000000000000000000000000000000000000000000000000000000000000000000000000000000000000000000000000000000000000000000000000000000000000000000000000000000000000000000000000000000000",
      "type": "0x0",
      "transactionHash": "0xf170d0eebef53bc1140baef468db90539e4942ea8c0b7987dbcb125c04abd821",
      "transactionIndex": "0x61",
      "blockHash": "0x13712dccd306049419d5387391ba953ff52661db24e5eb31f360113f33577406",
      "blockNumber": "0x590a6f",
      "gasUsed": "0x7d567",
      "effectiveGasPrice": "0x5d72d9bc7",
      "from": "0x70a0c937a0cf7821c235a2defcc68da01fef92fa",
      "to": null,
      "contractAddress": "0xb83dbc74d715b1679352016e61b53c2c766f1a2f"
    },
    {
      "status": "0x1",
      "cumulativeGasUsed": "0xd2714c",
      "logs": [],
      "logsBloom": "0x00000000000000000000000000000000000000000000000000000000000000000000000000000000000000000000000000000000000000000000000000000000000000000000000000000000000000000000000000000000000000000000000000000000000000000000000000000000000000000000000000000000000000000000000000000000000000000000000000000000000000000000000000000000000000000000000000000000000000000000000000000000000000000000000000000000000000000000000000000000000000000000000000000000000000000000000000000000000000000000000000000000000000000000000000000000",
      "type": "0x0",
      "transactionHash": "0xaff3d36fae69c71557940cad3b2f7bacf198e9784ff2173a2210c0e2ed5cfc24",
      "transactionIndex": "0x62",
      "blockHash": "0x13712dccd306049419d5387391ba953ff52661db24e5eb31f360113f33577406",
      "blockNumber": "0x590a6f",
      "gasUsed": "0x24680",
      "effectiveGasPrice": "0x5d72d9bc7",
      "from": "0x70a0c937a0cf7821c235a2defcc68da01fef92fa",
      "to": null,
      "contractAddress": "0x0f8bd07823b8ceb46025592e852430edc3e07a6c"
    },
    {
      "status": "0x1",
      "cumulativeGasUsed": "0xd31d11",
      "logs": [],
      "logsBloom": "0x00000000000000000000000000000000000000000000000000000000000000000000000000000000000000000000000000000000000000000000000000000000000000000000000000000000000000000000000000000000000000000000000000000000000000000000000000000000000000000000000000000000000000000000000000000000000000000000000000000000000000000000000000000000000000000000000000000000000000000000000000000000000000000000000000000000000000000000000000000000000000000000000000000000000000000000000000000000000000000000000000000000000000000000000000000000",
      "type": "0x0",
      "transactionHash": "0x39d7731534bcb10e974fae01a2bd71bfb63257a2eace98786d2d863cf6174e9c",
      "transactionIndex": "0x63",
      "blockHash": "0x13712dccd306049419d5387391ba953ff52661db24e5eb31f360113f33577406",
      "blockNumber": "0x590a6f",
      "gasUsed": "0xabc5",
      "effectiveGasPrice": "0x5d72d9bc7",
      "from": "0x70a0c937a0cf7821c235a2defcc68da01fef92fa",
      "to": "0xb83dbc74d715b1679352016e61b53c2c766f1a2f",
      "contractAddress": null
    },
    {
      "status": "0x1",
      "cumulativeGasUsed": "0xd36f59",
      "logs": [],
      "logsBloom": "0x00000000000000000000000000000000000000000000000000000000000000000000000000000000000000000000000000000000000000000000000000000000000000000000000000000000000000000000000000000000000000000000000000000000000000000000000000000000000000000000000000000000000000000000000000000000000000000000000000000000000000000000000000000000000000000000000000000000000000000000000000000000000000000000000000000000000000000000000000000000000000000000000000000000000000000000000000000000000000000000000000000000000000000000000000000000",
      "type": "0x0",
      "transactionHash": "0x419a67fbc1343f7d1bd784a17a7ea747dfa460721291a2ea65810ba3914b37d0",
      "transactionIndex": "0x64",
      "blockHash": "0x13712dccd306049419d5387391ba953ff52661db24e5eb31f360113f33577406",
      "blockNumber": "0x590a6f",
      "gasUsed": "0x5248",
      "effectiveGasPrice": "0x5d72d9bc7",
      "from": "0x70a0c937a0cf7821c235a2defcc68da01fef92fa",
      "to": "0x5b73c5498c1e3b4dba84de0f1833c4a029d90519",
      "contractAddress": null
    }
  ],
  "libraries": [],
  "pending": [],
  "returns": {},
  "timestamp": 1714829887,
  "chain": 11155111,
  "commit": "2240ebd"
}